:020000021000EC
:1000E8004111214506E4EFF04005B7070500938765
:1000F800071F37F60100B70505001CE1130646DCAB
:100108009385851CEFF0100F4111214506E4EFF0AF
:10011800C002B70705009387072737F60100B70520
:1001280005001CE1130626DF93858524EFF0900C6B
:100138004111214506E4EFF04000B7070500938719
:10014800072D37F60100B70505001CE1130626E266
:100158009385852AEFF0100A79712AE4414522F047
:1001680006F426ECEFE0707DA2652A84EF50C148C2
:1001780037260200B71505001306E62A938585BAC7
:100188002285EFF03007AA842285EFE0B07E26852D
:10019800EF50124B79712AE4414522F006F426EC1F
:1001A800EFE0B079A2652A84EF5061483726020053
:1001B800B71505001306262D938585BD2285EFF01A
:1001C8007003AA842285EFE0F07A2685EF50524723
:1001D80079712AE4414522F006F426ECEFE0F07547
:1001E800A2652A84EF50614837260200B71505003A
:1001F8001306E62E938585C32285EFF0A07FAA8497
:100208002285EFE030772685EF5092434111214552
:1002180006E4EFE09072B70705009387072D37F6DD
:100228000100B70505001CE1130626E29385852A1F
:10023800EFF0407C4111214506E4EFE01070B7076C
:1002480005009387072737F60100B70505001CE16D
:10025800130626DF93858524EFF0C07939712AE4E7
:100268001305000326F406FC22F8EFE0106D85471D
:10027800A2653EC89387019A1008AA843EECEF60F5
:100288009149B73705009387878326859CE0EF203F
:100298004101AA8513850402EF30720619A82A8441
:1002A8002685EF60B1352685EFE0D06C2285EF50CA
:1002B800323937760200B7250500130686E893859C
:1002C80085752685EFF000732A84F1BF41118145B9
:1002D80022E006E42A84EF10633703B501953C6DEC
:1002E80091C382972285EFD0B37D03C781A401E72C
:1002F80005472384E1A403C701A401E70547238038
:10030800E1A403C781A301E70547238CE1A203C742
:1003180001A301E705472388E1A203C781A201E7FA
:1003280005472384E1A203C701A201E7054723800B
:10033800E1A203C781A101E70547238CE1A003C718
:1003480001A101E705472388E1A003C781A001E7D0
:1003580005472384E1A003C701A001E705472380DF
:10036800E1A003C7819F01E70547238CE19E03C7EE
:10037800019F01E705472388E19E828003C781B07A
:1003880001E705472384E1B003C701B001E705474A
:100398002380E1B003C781AF01E70547238CE1AEB5
:1003A80003C701AF01E705472388E1AE03C781AE64
:1003B80001E705472384E1AE03C701AE01E705471E
:1003C8002380E1AE03C781AD01E70547238CE1AC8B
:1003D80003C701AD01E705472388E1AC03C781AC3A
:1003E80001E705472384E1AC03C701AC01E70547F2
:1003F8002380E1AC03C781AB01E70547238CE1AA61
:1004080003C701AB01E705472388E1AA82800111F0
:1004180026E4856422E89384041C37C4060006ECAD
:100428001304842A268504ECEF80620C08E811E99D
:10043800233C040023340400E2604264A2640561A2
:10044800828008E404E123340500FDB7B7C506003F
:1004580037F50100138681959385852C1305A5280A
:100468006F60123B37750200138681959385019A58
:100478001305C5DD6F60D23903C701C301E705471E
:100488002388E1C203C781C201E705472384E1C28B
:1004980003C701C201E705472380E1C203C781C141
:1004A80001E70547238CE1C003C701C101E7054700
:1004B8002388E1C003C781C001E705472384E1C061
:1004C80003C701C001E705472380E1C003C781BF17
:1004D80001E70547238CE1BE828003C701CB01E712
:1004E80005472388E1CA03C781CA01E70547238472
:1004F800E1CA03C701CA01E705472380E1CA03C768
:1005080081C901E70547238CE1C803C701C901E791
:1005180005472388E1C803C781C801E70547238445
:10052800E1C803C701C801E705472380E1C803C73D
:1005380081C701E70547238CE1C68280411122E08B
:1005480037F50200138681959385019B1305E524F1
:1005580006E4EF60F22B138681950264A26037F5FA
:1005680002009385819A1305052541016F60522A7F
:100578009307000099C737250400130505866F8087
:100588000308828097B105009381C1511385819E2C
:1005980017D605001306863A098E8145EF80321476
:1005A800178503001305E50519C51715030013057D
:1005B800E52AEF80C304EF70F24C02452C00014697
:1005C800EF00200521B3411122E083C781D506E45D
:1005D80099EFB7770300938787ED99C737A505008B
:1005E80013050521EF60D20E8547238CF1D4A26054
:1005F800026441018280B7770300938727E089CBA3
:1006080037A50500938501D6130505216F60E27EA5
:100618008280411106E422E00008B7E704009385D0
:10062800072D1385815DEF70302F2A87E167938549
:10063800A7D23A85EF70005081473E85A2600264D8
:1006480041018280011106EC22E80010AA872E875A
:100658002326F4FEBA872324F4FE8327C4FE1B87CF
:10066800070085476317F702832784FE1B87070067
:10067800C167FD17631FF7001385819EEF00C00354
:10068800138681959385819EC1671385277FEF60C7
:1006980032180100E260426405618280411106E47B
:1006A80022E00008C1679385F7FF0545EFF09FF941
:1006B800A26002644101828039714EEC83A7C19E19
:1006C80006FC22F81B87170026F44AF052E856E485
:1006D80023A6E19E6392071005472384E19683B71A
:1006E800019C138501F28C6BEF00004383B7019CDA
:1006F800138501ED37CA06008C67EF00E04183B728
:10070800019C138501E88C6FEF000041938501F28D
:100718001385815DEF702036938501ED13050A1965
:10072800EF00500B938501E81385814CEF70A034DE
:10073800938501E81385813BEF70E0339387814C03
:100748009853896A1389815D3367570198D323B019
:10075800270F83B7019C138501E38C6B130A0A19D1
:1007680023342A0FEF00E03D83B7019C138501DE97
:100778008C67EF00003D83B7019C138501D98C6F0E
:10078800EF00203C938501E313850119EF70A05F0A
:10079800938501DE1385012AEF00B012938501D9F4
:1007A80013850108EF70205E938501D9138501F741
:1007B800EF70605D93870108985393840119E4F3FF
:1007C8003367570198D383A7C19E1389012A23341D
:1007D800990E852723A6F19EE2704274A2740279CD
:1007E800E269426AA26A2161828083A7C19E9B86D0
:1007F800F7FF23A6D19E09476396E70441111385A5
:10080800815D06E4EF70C0371385814CEF70403787
:100818001385813BEF70C03613850119EF7020678F
:1008280013850108EF70A066138501F7EF70206645
:1008380039A0EFE05016A26041016FE0F01BA26002
:100848004101828082801C61011132E49C732EE098
:100858000146056182871C61011132E49C732EE018
:10086800014605618287B7E70400938787411CE149
:100878006F705031B7E70400938787391CE16F70B8
:10088800502F411122E006E42A84EFF0BFFE2285B2
:100898000264A26041016FE06070411122E006E449
:1008A8002A84EFF05FFC22850264A26041016FE0B8
:1008B800E06E28616F60721D28616F60121D011162
:1008C80022E8B28706EC2A84014691C70547094603
:1008D8006393E70005462860EF70820AAA877D5572
:1008E80081E72860EF70623EE260426481450561FD
:1008F8008280011122E8B28706EC2A84014691C75A
:10090800054709466393E70005462860EF704207EC
:10091800AA877D5581E72860EF70223BE260426438
:100928008145056182803461AE873E8585456F705B
:1009380092070111346122E82E8426E48545AA84B1
:10094800228506ECEF609250FD576355A0002A946B
:100958008347F4FFE2604264BCC4A26405618280FC
:10096800AE877D572C616385E7003E856F80C26E38
:1009780041112E8506E4EF605211A2603335A000C4
:100988003305A04041018280AE877D572C61638585
:10099800E7003E856F80426541112E8506E4EF60D1
:1009A800D20EA2603335A0003305A04041018280F9
:1009B800797122F026EC4AE84EE452E006F42A89DE
:1009C800AE89B28401447D5A631B9400A2702285CB
:1009D8000274E2644269A269026A456182809317DF
:1009E8002400CE97833509048843EF80E266012509
:1009F800E30E45FD0504C9BF411122E02A842861A0
:100A080006E4EF707202A26028C402644101828089
:100A1800411122E02A84286106E4EF70F2002C607C
:100A28000264A26041016FF0A26E411122E006E467
:100A38007D572A84AE87639EE50028456305B50087
:100A48002C60EFF0E26CFD57A2603CC402644101E7
:100A580082802C613E85F5B7411122E02A84286105
:100A680006E4EF70F2010125A26028C40264410186
:100A78008280797122F026EC4AE84EE452E006F4CE
:100A88002A89AE84B28901447D5A63093401033549
:100A98000904EF70E27E012563144503FD5711C474
:100AA80093172400BE9483A7C4FFA2702285027402
:100AB8002324F904E2644269A269026A45618280DA
:100AC80093172400A69788C30504C1B7411122E0F3
:100AD8002A84286106E4EF70A27A2C600264A2607E
:100AE800012541016FF0C26C411122E006E47D57F7
:100AF8002A84AE87639FE50028456306B5002C600D
:100B0800EFF0026B0125FD57A2603CC4026441016D
:100B180082802C613E85EDB7011122E826E406ECBF
:100B28002A84AE84EF70302EB7E7040093878739A4
:100B38001CE0FD5724E0E2603CC44264A264056105
:100B48008280011122E826E406EC2A84AE84EF7044
:100B58001030B7E70400938787411CE0FD5724E075
:100B6800E2603CC44264A26405618280597106F463
:100B780022F026EC00184AE818F023380403233C36
:100B880014030CE410E814EC1CF4AA84EF90126A25
:100B98009307F520C19B3301F1400A89930505208D
:100BA8009306840026864A85233CD4FCEF70606552
:100BB8004145EFE08058CA85AA84EF40312937269D
:100BC8000200B71505001306062E938585C02685F5
:100BD800EFE050622A892685EFE0C0594A85EF5038
:100BE8002226B7E70400938707531CE1A5A6B7E7B9
:100BF8000400938707551CE1B1AE411122E006E4D9
:100C08002A84EFF01FFE22850264A26041016FE092
:100C1800E038411122E006E42A84EFF05FFD2285E6
:100C28000264A26041016FE060377C7599E393E547
:100C380015005C4D0CD1FD8D89C937E504004111C3
:100C48001305854806E4EFF06FE182801C51DD8DC5
:100C5800E9BF1C51CD8F1CD15C4DFD8D89C541115B
:100C680006E4EFE0B05C82806879011106EC19E1D6
:100C7800EFF00FCC8347850381EF2EE42AE0EF5095
:100C8800D13D0265A265E2601C619C7B056182879B
:100C9800E2602E9503459503056182808347150E12
:100CA800411122E006E42A8491EB93050002EFF05B
:100CB800BFFB85472300A40EA300F40E0345040ED2
:100CC800A260026441018280411122E006E42A8484
:100CD800EF00201CB7E704002310040E9387075386
:100CE800A2601CE0233C040C2334040E2338040EB9
:100CF800233C040E23300410026441018280011158
:100D080026E4AA842E8522E806EC2E84EF10C06122
:100D1800814709C52285EF106029AA87FCF822853A
:100D2800EF00F04A814709C52285EF00F040AA8705
:100D3800FCFC2285EF00F044814709C52285EF00BD
:100D4800103BAA87E260426423B0F410A2640561F4
:100D58008280011106EC22E826E42A84AE84EFF0B2
:100D6800D0379305040D2285EFF07FF92310040E88
:100D780064F493B4140004D0E260233C040C232EE2
:100D880004004264A264056182807C7599E393E55E
:100D980015005C4D0CD1FD8D89C937E50400411162
:100DA8001305854806E4EFF06FCB82801C51DD8D7A
:100DB800E9BF1C51CD8F1CD15C4DFD8D89C54111FA
:100DC80006E4EFE0B0468280411122E006E42A847E
:100DD800EF00200CB7E7040093870755A2601CE0DA
:100DE800233C040C2320040E2302040E2334040E97
:100DF8002338040E233C040E2330041002644101FE
:100E08008280011126E4AA842E8522E806EC2E842D
:100E1800EF80100F814709C52285EF80C054AA874B
:100E2800FCF82285EF70D075814709C52285EF70DF
:100E3800D06BAA87FCFC2285EF70D06F814709C56B
:100E48002285EF70F065AA87E260426423B0F4104F
:100E5800A26405618280011106EC22E826E42A8456
:100E6800AE84EFF090279305040D2285EFF07FF90B
:100E780064F493B4140004D0E2602320040E230227
:100E8800040E233C040C232E04004264A264056172
:100E98008280B7E7040093870759130705041CE10C
:100EA8002334050023380500233C050023200502D0
:100EB8002334050223380502233C0502BA8793062A
:100EC800050C23B0070023B40700C107E39BD7FE36
:100ED800A1472320F50C78E51305050D6F00B13BFC
:100EE800011122E8007526E44AE006ECAA842E895E
:100EF80019E4E2604264A2640269056182801C64AC
:100F08001048A6854A8582970060DDB7EFE0A028E3
:100F1800EFE0802ED5BFFD576384F500EF40527295
:100F2800EFE09015011122E82A84087506EC26E402
:100F380001E9E260233404024264A264056182800C
:100F48005C491B87F7FF58C9EDF70461EFE000051E
:100F58002685F9BF4111B7E704009387075906E4CE
:100F680022E01CE181452A84EFF09FF72285EFF00B
:100F78007FFB6864930704046307F50019C1EFE079
:100F880060022334040C1305040D0264A2604101BD
:100F98006FF0702C411122E006E42A84EFF09FFBE9
:100FA80022850264A26041016FD0507F986141118F
:100FB8009C65833687FE06E418E1AA969CE22334F2
:100FC8000500833787FEB2853E95EFF09FD8A26073
:100FD80041018280797126EC9304050122F02A846C
:100FE80026852EE406F4EFF03FCEB7E7040093879A
:100FF80007641CE0A265B7E70400938787661CE8CE
:10100800233404002685EFF0DFD401A82A8426853E
:10101800EFF03FBD2285EF40B262A2700274E26435
:101028004561828099E91C621CE183B787FE1866D6
:10103800AA9798E3233405008280B7E704009387D2
:1010480007641CE1B7E70400938787661CE923342B
:101058000500898981C541056FF0BFB882800146C6
:101068008945C9B78332050083B282FE1695C5BF8C
:10107800411122E006E42A84EFF07FFE2285026413
:10108800A26041016FD090718332050083B282FE65
:101098001695F9BF2E86814571B7986141119C65F7
:1010A800833687FE06E418E1AA969CE223340500FD
:1010B800833787FEB2853E95EFF0FFD9A2604101E4
:1010C8008280797126EC9304050122F02A84268512
:1010D8002EE406F4EFF05FCFB7E704009387076AC2
:1010E8001CE0A265B7E704009387876C1CE82334EB
:1010F80004002685EFF03FD601A82A842685EFF064
:101108001FAF2285EF40D253A2700274E26445619A
:10111800828099E91C621CE183B787FE1866AA974A
:1011280098E3233405008280B7E704009387076AB1
:101138001CE1B7E704009387876C1CE9233405009A
:10114800898981C541056FF09FAA8280014689453A
:10115800C9B78332050083B282FE1695C5BF411117
:1011680022E006E42A84EFF07FFE22850264A26072
:1011780041016FD0B0628332050083B282FE1695BA
:10118800F9BF2E86814571B71C619C6B82871C69EB
:1011980003C5170282801C6903C5270282801C6967
:1011A800A84F82801C694111FC4F41019BD68700E2
:1011B8001BD7070193F6F60F13F5F70FA20613775F
:1011C800F70F4207558D9BD78701E207598D5D8D33
:1011D80082801C694111BC5341019BD687001BD7F3
:1011E800070193F6F60F13F5F70FA2061377F70F1B
:1011F8004207558D9BD78701E207598D5D8D828007
:101208001C6903C5170282801C6903C527028280F6
:101218001C69A84F82801C694111FC4F41019BD673
:1012280087001BD7070193F6F60F13F5F70FA206F1
:101238001377F70F4207558D9BD78701E207598D22
:101248005D8D82801C694111BC5341019BD687008A
:101258001BD7070193F6F60F13F5F70FA2061377BE
:10126800F70F4207558D9BD78701E207598D5D8D92
:1012780082801C6903C5870482801C6903C59704A2
:10128800828001458280014582808280014563E336
:10129800C50082809317750065915D8D83C7050031
:1012A80085053E95EDB79C69011130008C6B22E8ED
:1012B80006EC2A84EF40F146E2602285426405612B
:1012C80082809C69011130008C7722E806EC2A8420
:1012D800EF403145E26022854264056182809C6965
:1012E800011130008C7F22E806EC2A84EF4071431C
:1012F800E26022854264056182809C6901113000A8
:10130800AC6722E806EC2A84EF40B141E26022850E
:101318004264056182809C69011130008C6B22E86F
:1013280006EC2A84EF40F13FE260228542640561C1
:1013380082809C69011130008C7722E806EC2A84AF
:10134800EF40313EE26022854264056182809C69FB
:10135800011130008C7F22E806EC2A84EF40713CB2
:10136800E26022854264056182809C690111300037
:10137800AC6722E806EC2A84EF40B13AE2602285A5
:101388004264056182809C69011130008C6B22E8FF
:1013980006EC2A84EF40F138E26022854264056158
:1013A80082809C69011130008C7722E806EC2A843F
:1013B800EF403137E26022854264056182809C6992
:1013C800011130008C7F22E806EC2A84EF40713549
:1013D800E2602285426405618280B7F70400938742
:1013E80087F41CE16FF0A052B7F70400938707FC5D
:1013F8001CE16FF0C051B7F704009387071C1CE18C
:101408006FF0E050B7F704009387071F1CE16FF0F7
:101418000050B7F70400938707021CE16FF0204FD4
:10142800B7F70400938707221CE16FF0404EB7F727
:101438000400938787241CE16FF0604D411122E07E
:1014480006E42A84EFF07FF922850264A260410154
:101458006FD0D034411122E006E42A84EFF0DFF89F
:1014680022850264A26041016FD05033411122E00D
:1014780006E42A84EFF03FF822850264A260410165
:101488006FD0D031411122E006E42A84EFF09FF7B3
:1014980022850264A26041016FD05030411122E0E0
:1014A80006E42A84EFF0FFF622850264A260410177
:1014B8006FD0D02E411122E006E42A84EFF05FF6C7
:1014C80022850264A26041016FD0502D411122E0B3
:1014D80006E42A84EFF0BFF522850264A260410188
:1014E8006FD0D02B4111B7F7040022E093878729EA
:1014F80006E41CE18347F5062A848DC3086919C1EF
:10150800EFD0502A087419C1EFD0D029087C19C12E
:10151800EFD05029286419C1EFD0D0282285026461
:10152800A26041016FF0A03E411122E006E42A8446
:10153800EFF05FFB22850264A26041016FD01026A4
:101548004111B7F7040022E09387872B06E41CE1DA
:101558008347F5062A848DC3086919C1EFD0902402
:10156800087419C1EFD01024087C19C1EFD090235A
:10157800286419C1EFD0102322850264A2604101BA
:101588006FF0E038411122E006E42A84EFF05FFBB7
:1015980022850264A26041016FD050204111B7F743
:1015A800040022E09387872D06E41CE18347850821
:1015B8002A8489CF086919C1EFD0D01E087419C1CF
:1015C800EFD0501E087C19C1EFD0D01D22850264CF
:1015D800A26041016FF0A033411122E006E42A84A1
:1015E800EFF0DFFB22850264A26041016FD0101B7F
:1015F8004111B7F7040022E006E4938707132A8411
:101608001CE14105EFE0706E22850264A260410191
:101618006FF0E02F411122E006E42A84EFF05FFD2D
:1016280022850264A26041016FD050174111B7F7BB
:10163800040022E006E4938787EC2A841CE1410534
:10164800EFE0B06A22850264A26041016FF0202CAD
:10165800411122E006E42A84EFF05FFD228502644E
:10166800A26041016FD090130111B7F7040022E87E
:1016780026E406EC0471938707041CE12A84EFF042
:10168800E0306386A40081C42685EFD0B0110868D5
:1016980001C51C619C67829713058401EFE0F06423
:1016A80022854264E260A26405616FF04026411120
:1016B80022E006E42A84EFF03FFB22850264A26060
:1016C80041016FD0B00D1869146D6375D700050717
:1016D80018E982801C61BC6B82872947AA876360EE
:1016E800A7021307F0027D556375B7049B870703AC
:1016F80093F7F70F63FFF5021B8505FD82809B8733
:1017080005FD93F7F70F2547E378F7FE9B87F5F973
:1017180093F7F70F15476365F7001B8595FA8280E5
:101728009B87F5FB93F7F70F7D556364F7001B85DF
:1017380095FC8280411122E02A84086106E4EFF0DA
:101748009FF8FD57A2601CC4026441018280797130
:1017580026EC06F422F0834785030547AE84639C94
:10176800E700638BC5020274A270E2640D8E3685B1
:1017780045616F70E2542A8499E736E432E0EF500D
:10178800C10DA26602661C6022850274A2709C7F4D
:10179800A685E26445618287A2700274E2644561AD
:1017A80082801861833687FE63FFB6002E8637E590
:1017B8000400B7E5040041119385856D1305056F95
:1017C80006E4EFF0AFBAB2873386B64063F3C700DA
:1017D8003E8681466F40811B59714EF41145AE8992
:1017E800814586E4A2E026FC52F056EC5AE8328A9B
:1017F800B68ABAE8BEECC2F0C6F44AF837EB040081
:10180800EF60523893058B72AA84EF802205014459
:101818001DC12685EF908221130915004A85EFE046
:10182800A02AA6854A862A84EF70824993058B727E
:101838001145EF60323594085686D2854E8536E4D8
:10184800EFE0521BAA8401C8A2851145EF609233CC
:101858002285EFD02075A66006644279A279027AC3
:10186800E26A426B2685E27465618280B28791C51F
:101878002E8683C507006F70A236014582801C61E1
:101888009C6B82871C619C738287011122E806EC9D
:10189800834785032A8481EF2EE4EF40117C1C6086
:1018A80022854264A265E2609C7B056182873304DD
:1018B800B50003459403E26042640561828001112A
:1018C80022E806EC26E43304B5008347941391EB31
:1018D8001C61B284BC638297AA876384A400A30CAA
:1018E800A412E2604264A2643E85056182804111CF
:1018F80022E02A84138581AA06E4EFF0201A1860F2
:101908001C67186B6376E5000E05AA97886319E1D2
:10191800EFE01F8237F60400B7150500814613066D
:1019280006A793858586EFD0206819E1EFE01F8E22
:10193800A260026441018280411122E02A84138559
:1019480001AA06E4EFF0801518601C67186B63762F
:10195800E5000E05AA97886319E1EFE06FFD37F6F9
:101968000400B71505008146130686AC9385858665
:10197800EFD0806319E1EFE07F89A2600264410142
:101988008280411122E02A84138581AA06E4EFF0BF
:10199800E0101C60986B637AE5029C670E05AA97B5
:1019A8009C63014599CF37F60400B71505008146B9
:1019B800130606A7938585863E85EFD0E05E33350E
:1019C800A000A2600264410182800145DDBF41118F
:1019D80022E02A84138501AA06E4EFF0200C1C609B
:1019E800986B637AE5029C670E05AA979C6301458C
:1019F80099CF37F60400B71505008146130686AC63
:101A0800938585863E85EFD0205A3335A000A260A5
:101A18000264410182800145DDBF0333050079710D
:101A28002EE80333030132EC36E03AE445610283E1
:101A38000333050079712EE80333830132EC36E075
:101A48003AE4456102830333050001112EE00333B4
:101A5800030132E4056102838338050001112EE099
:101A680083B8880132E405618288B7F70400B3358A
:101A7800B000938787290CC51CE123380500233C57
:101A8800050023100502230105022334050223382B
:101A98000502233C050223300504233405042338BA
:101AA8000504233C050423200506A30705068280B8
:101AB800B7F70400B335B0009387872B0CC51CE13A
:101AC80023380500233C05002310050223010502E5
:101AD8002334050223380502233C0502233005047C
:101AE8002334050423380504233C05042320050674
:101AF800A307050682800111B7F7040022E806EC67
:101B080026E43336C0009387870C10C50CE91CE126
:101B1800014681452A84EF00410F01A8AA84228545
:101B2800EFE0F05E2685EF40A231E2604264A264F5
:101B3800056182801C619C6B82871C619C6F828717
:101B48009C61411122E09C7306E42A848297A2607A
:101B580022850264410182809C61411122E09C77C8
:101B680006E42A848297A260228502644101828069
:101B78009C61411122E09C7B06E42A848297A26042
:101B880022850264410182809C61411122E09C7F90
:101B980006E42A848297A260228502644101828039
:101BA8001C61BC6382871C614111BC67410182874B
:101BB8001C614111BC6B410182870111B7F7040018
:101BC80022E806EC26E43336C0009387070610C5E2
:101BD8000CE91CE1014681452A84EFF0707501A8E3
:101BE800AA842285EFE0B0522685EF406225E260A4
:101BF8004264A264056182801C619C6B82871C61BF
:101C08009C6F82879C61411122E09C7306E42A84C0
:101C18008297A26022850264410182809C61411101
:101C280022E09C7706E42A848297A26022850264D7
:101C3800410182809C61411122E09C7B06E42A8458
:101C48008297A26022850264410182809C614111D1
:101C580022E09C7F06E42A848297A260228502649F
:101C6800410182801C61BC6382871C614111BC6791
:101C7800410182871C614111BC6B41018287B7F722
:101C88000400B335B0009387872D0CC51CE12338B9
:101C98000500233C050023000502233405022338F0
:101CA8000502233C050223300504231405042304FC
:101CB800050882800111B7F7040022E806EC26E443
:101CC8003336C000938707F00CE910C51CE1814545
:101CD8002A84EF00A13601A8AA842285EFE03043C8
:101CE8002685EF40E215E2604264A26405618280C5
:101CF8001C619C6B82871C619C6F82879C6141116F
:101D080022E09C7306E42A848297A26022850264FA
:101D1800410182809C61411122E09C7706E42A847B
:101D28008297A26022850264410182809C614111F0
:101D380022E09C7B06E42A848297A26022850264C2
:101D4800410182800111B7F7040022E806EC26E47D
:101D58003336C000938707040CE910C51CE12A84B8
:101D6800EFE0D04208F081452285EF00216901A803
:101D7800AA842285EFE0B0392685EF40620CE26044
:101D88004264A264056182801C69986B98E19C6F2B
:101D98009CE582801C69987398E19C779CE5828019
:101DA8001C69987B98E19C7F9CE582801C69B863DC
:101DB80098E1BC679CE582801C69B86F98E1B873AC
:101DC80098E5B87798E9B87B98EDB87F98F1D8632B
:101DD80098F5DC679CF982801C69D86B98E1D86F0C
:101DE80098E5D87398E9D87798EDD87B98F1D87F9B
:101DF80098F5FC639CF982801C69F86798E1F86B98
:101E080098E5F86F98E9F87398EDF87798F1F87B0A
:101E180098F5F87F98F903B7071098FD03B787106E
:101E2800B8E103B70711B8E503B78711B8E983B775
:101E38000712BCED82801C6903B7871298E103B7CB
:101E4800071398E503B7871398E903B7071498EDC4
:101E580003B7871498F103B7071598F503B78715E3
:101E680098F903B7071698FD03B78716B8E103B7C3
:101E78000717B8E503B78717B8E983B70718BCEDA4
:101E880082801C619C6B82870333050079712EE880
:101E98000333830132EC36E03AE4456102830333CD
:101EA800050079712EE80333030232EC36E03AE498
:101EB800456102830333050079712EE803338302F9
:101EC80032EC36E03AE44561028303330500797168
:101ED8002EE80333030332EC36E03AE4456102832B
:101EE8000333050079712EE80333830332EC36E0BF
:101EF8003AE4456102830111B7F7040022E806ECD1
:101F080026E4B335B000938707130CC51CE12A8477
:101F1800EFE01026E26008E84264A264056182806E
:101F2800AA842285EFE0B01E2685EF3072711C610D
:101F38009C6B828703B80500411122E003388801B1
:101F480006E42A840298A260228502644101828004
:101F58001C619C7382870111B7F7040022E806EC24
:101F680026E4B335B000938787EC0CC51CE12A84BE
:101F7800EFE01020E26008E84264A2640561828014
:101F8800AA842285EFE0B0182685EF30726B1C61B9
:101F98009C6B82879C61411122E09C6F06E42A8435
:101FA8008297A2602285026441018280411122E069
:101FB8002A84138501BF06E4EFE0502E18601C67E1
:101FC800186B6376E5000E05AA97886319E1EFE0C0
:101FD8002F9637260500B715050081461306864952
:101FE80093858586EFC0507C19E1EFE02FA2A260AF
:101FF800026441018280411122E02A84138581A76D
:1020080006E4EFE0B02918601C67186B6376E500FA
:102018000E05AA97886319E1EFE08F9137F604005F
:10202800B71505008146130686A193858586EFC0FE
:10203800B07719E1EFE08F9DA260026441018280D0
:102048005971A2F02A842E85D2E056FC86F4AE8A15
:10205800A6ECCAE8CEE4EFF01FFA2A8AAA85280877
:10206800EFF0DFC9E26703B587FE08ECEFD0D025B3
:10207800106CAA84AA8581462808EF30616E186C16
:10208800814709C783870400B327F0002300F402BF
:10209800D2850810EFF01FC8827703B587FE08F8CD
:1020A800EFD090221078AA89AA8581460810EF30CF
:1020B800216B25A82A84014981490810EF3031088D
:1020C8002808EF30D1072285EFD0E00C2685EFC035
:1020D800706D638509004E85EFC0D06C630E090CE6
:1020E8004A85C1A02A840149C9BFD2852810EFF0CA
:1020F800FFC311A0C5BFA27703B587FE28E0EFD0C4
:10210800B01C30602A89AA8581462810EF304165C5
:102118005285EFF0FFBD2304A4045285EFF0BFBD44
:10212800A304A4045685EFF07FE883B5819893064D
:10213800A4042A8A13864502EFF06FE183B501995A
:102148009306E40652851386A501EFF04FE0854714
:102158002304F40804E823343403233C240328101C
:10216800EF30E17D0810EF30817D2808EF30217DC8
:10217800A6700674E6644669A669066AE27A65612D
:1021880082802A8401492810EF30617B3DB72A8478
:10219800DDBF2A842808EF30817A2285EFC0B07F1E
:1021A8002685EFC0306009A8EDB72A842808EF30EB
:1021B80001792285EFC0307EEFD050072AE4EFD0B6
:1021C800A0032265EF30D247F5B7397126F4AA8407
:1021D800138581A74AF006FC22F84EECEFE0100CBC
:1021E800986093173500033987013E9983370900B2
:1021F8009DE3AA8913050009EFD0700881452A8458
:10220800EFF0FFA7A6852285EFF09FE388604E8652
:10221800A285EFE01027E270427403350900A2742A
:102228000279E26921618280EFC0F076EFD0100078
:102238002AE4EFC0707C2265EF309240EFC0B075A1
:102248001C6022859C678297D5B7411122E02A84B9
:10225800138501A806E4EFE0700418601C67186B8A
:102268006376E5000E05AA97886319E1EFD05FEC65
:1022780037F60400B71505008146130606B69385A0
:102288008586EFC0705219E1EFD05FF8A260026452
:1022980041018280411122E02A84138581A806E445
:1022A800EFE0C07F18601C67186B6376E5000E05C9
:1022B800AA97886319E1EFD0BFE737F60400B7158E
:1022C80005008146130606BB93858586EFC0D04D71
:1022D80019E1EFD0BFF3A26002644101828041118D
:1022E80022E02A84138501A706E4EFE0207B18602A
:1022F8001C67186B6376E5000E05AA97886319E1D9
:10230800EFD01FE337F60400B71505008146130622
:1023180006B393858586EFC0304919E1EFD01FEFEA
:10232800A260026441018280411122E02A8413855F
:1023380001BF06E4EFE080761C60986B637AE502E3
:102348009C670E05AA979C63014599CF372605001F
:10235800B7150500814613068649938585863E850F
:10236800EFC090443335A000A2600264410182802E
:102378000145DDBF81480143FD1633086600034E61
:102388000800B38EE7406340DE03AA866319F702AC
:1023980076957D5EFD18639BC8034287631DE6043E
:1023A80082808508D9BF1B1F8E011B5F8F41E35EAA
:1023B800E0FDB387C741E376D3FE05037DBF034342
:1023C800070005078506A38F66FEC9B72300B50079
:1023D800834E08000147B386E7001303170063150F
:1023E800D7011A95B6877DB783C606002A97A3003A
:1023F800D7001A87CDB72300B5000343F7FF8146FE
:102408003388D70093881600639666004695C2877E
:102418007D1769B703480800AA96A3800601C686F7
:10242800C5B7797122F026EC4AE8BA8406F44EE47E
:102438002E853E89B68542874684B1C0BB89044152
:10244800B286B30737012A864A85EFF0BFF23B0907
:10245800254189CC10403B06364101C6A685EF6070
:1024680032061C40BB8737413B89270123202401C2
:10247800A2700274E2644269A2694561828083A9FC
:1024880008007DBF011126E4BE8483A708002E85BD
:102498004287B685C297B2862A86268522E806EC48
:1024A8004684EFF03FED058DE26008C04264A26407
:1024B8000561828039714AF04EEC3E89B309F740D4
:1024C8001C4D22F826F456E406FC52E85AE093F72D
:1024D800070B13070002AE8A3284B684639AE702B8
:1024E800630709004A86B6852285EF60627D638BA3
:1024F800090E330524014274E270A2740279426A1B
:10250800026B4E86D685E269A26A21616F60321D30
:1025180041476389E702014A6390090C330B49413B
:102528006302490D330534014274E2700279E269AD
:10253800A26AB38544015A86A274426A026B216179
:102548006F6002781305050DEFF05FA69305D002C2
:102558002A8AEFF08FB383C704006399A70083C763
:1025680004000504054AA30FF4FE7DB79305B002E5
:102578005285EFF08FB183C70400E382A7FE93056D
:1025880000035285EFF06FB083C70400E395A7F806
:102598008547E3D227F9930580075285EFF0EFAE20
:1025A80083C71400639DA70083C704000904094A70
:1025B800230FF4FE83C71400A30FF4FEB1BF9305E5
:1025C80080055285EFF06FAC83C71400E38EA7FC3B
:1025D8004A8B014AE38809F44E86D6852285EF6046
:1025E80012102DBFE2704274A2740279E269426A45
:1025F800A26A026B2161828001113685BE8683271B
:10260800080026E4B2843A86268722E806EC42844B
:10261800EFF05FEAE26004C04264A2640561828070
:102628001DC3AA87A946254833F7D502FD17329757
:10263800034747002380E7002E87B3D5D502E3651B
:10264800E8FE1D9D828093F7A60413070004639E8D
:10265800E700AA8713F775003297034747008D8173
:10266800FD172380E700FDF5E9BFB982858A114788
:1026780091C25147AA873A9613F7F5003297034754
:1026880007009181FD172380E700FDF55DBF1DC39D
:10269800AA87A946254833F7D502FD17329703477D
:1026A80047002380E7002E87B3D5D502E365E8FE0F
:1026B8001D9D828093F7A60413070004639EE7001C
:1026C800AA8713F775003297034747008D81FD17D6
:1026D8002380E700FDF5E9BFB982858A114791C2D9
:1026E8005147AA873A9613F7F50032970347070030
:1026F8009181FD172380E700FDF55DBF9C61011105
:1027080022E82A8403B587FE26E406EC08E0AE84B6
:10271800EFD0803B08E410604264E260AA85268519
:10272800A264814605616F30A103086519C16FC0B5
:10273800700782805971A2F02A842E8586F4A6EC4F
:10274800CEE4CAE8AE89D2E0EFF0DFB4AA85AA8465
:102758000818EFF06FC00C180808EFF03FFA0818D7
:10276800EF30E11DA6850818EFF08FC00C1808108F
:10277800EFF0DFF80818EF30811CA6852800EFF08D
:10278800AFC02C000818EFF07FF72800EF30211BAE
:10279800A6852800EFF0CFBAA26703BA87FE528554
:1027A800EFD080322A89AA85814652862800EF20F8
:1027B800317B23382401233C4401814763060A0006
:1027C80083070900B327F0002300F4022685EFF001
:1027D8006FB6A300A4022685EFF02FB6E2672301A7
:1027E800A40226851CF4C26702EC1CF8A27702F446
:1027F8001CFC82773CE0E27702FC3CE4C2773CE8D0
:10280800EFF00FBA28CC2685EFF0EFB968CC268513
:10281800EFF00FBA28D04E85EFF04FF983B58199C4
:10282800930644061386B500EFE07FF28547A307B9
:10283800F4062800EF30A110A6700674E664466915
:10284800A669066A656182802A840818EF30210F1C
:102858002285EF30E25E2A840818EF30410E08081E
:10286800EFF0BFECF5B72A842800EF30410D0810CF
:10287800EFF0BFEBEDB72A842800EF30410C0818C1
:10288800EFF0BFEAEDB72A84DDBF2A84CDB72A84EA
:10289800F9B7397126F4AA84138581A84AF006FC91
:1028A80022F84EECEFE0801F98609317350003394B
:1028B80087013E99833709009DE3AA89130500071C
:1028C800EFD0E01B81452A84EFF02F9AA685228558
:1028D800EFF05FE688604E86A285EFE0803AE2700E
:1028E800427403350900A2740279E2692161828089
:1028F800EFC0700AEFD080132AE4EFC0F00F226512
:10290800EF300254EFC030091C6022859C67829723
:10291800D5B79C61011122E82A8403B587FE26E415
:1029280006EC08E0AE84EFD0201A08E41060426498
:10293800E260AA852685A264814605616F205162FE
:10294800086519C16FC0006682805971A2F02A8497
:102958002E8586F4A6ECCEE4CAE8AE89D2E0EFF084
:10296800DF8EAA85AA840818EFF04FAB0C18080868
:10297800EFF03FFA0818EF20917CA6850818EFF0D1
:102988006FAB0C180810EFF0DFF80818EF20317B58
:10299800A6852800EFF08FAB2C000818EFF07FF722
:1029A8002800EF20D179A6852800EFF0AFA5A2670F
:1029B80003BA87FE5285EFD020112A89AA8581465D
:1029C80052862800EF20D15923382401233C4401A2
:1029D800814763060A0083070900B327F000230034
:1029E800F4022685EFF04FA1A300A4022685EFF09C
:1029F8000FA1E2672301A40226851CF4C26702EC3A
:102A08001CF8A27702F41CFC82773CE0E27702FC17
:102A18003CE4C2773CE8EFF0EFA428CC2685EFF041
:102A2800CFA468CC2685EFF0EFA428D04E85EFF030
:102A3800EFD783B58199930644061386B500EFE076
:102A48001FD18547A307F4062800EF20516FA67011
:102A58000674E6644669A669066A656182802A8406
:102A68000818EF20D16D2285EF30823D2A8408189E
:102A7800EF20F16C0808EFF0BFECF5B72A842800C6
:102A8800EF20F16B0810EFF0BFEBEDB72A842800B8
:102A9800EF20F16A0818EFF0BFEAEDB72A84DDBF2E
:102AA8002A84CDB72A84F9B7397126F4AA84138504
:102AB80001A84AF006FC22F84EECEFD0307E986070
:102AC80093173500033987013E99833709009DE341
:102AD800AA8913050007EFC0907A81452A84EFE0A0
:102AE8003FFDA6852285EFF05FE688604E86A285C9
:102AF800EFE02019E270427403350900A2740279EC
:102B0800E26921618280EFC00069EFC030722AE477
:102B1800EFC0806E2265EF30A232EFC0C0671C6044
:102B280022859C678297D5B7397122F806FC26F46E
:102B38002AE013F4F50F2EE409E8B2853686B68448
:102B4800EF50102C6383A400054423048100E27035
:102B580042740265A265A27421618280757122E1C6
:102B6800A6FCCAF8CEF4D2F0D6ECDAE8DEE4E2E06D
:102B780066FC6AF806E500093689AA891385060DF8
:102B8800BE8B2338B4F6233CC4F6BA8AEFF0EFE3E1
:102B98008324890179719307000493FCA4042A8B88
:102BA800130AA5040A8DDE85014C638AFC00A1473F
:102BB8006387FC00054C63447001B305704162876C
:102BC800A686528613058D02EFF09FA51307800293
:102BD800099FB307ED0003470B022326A4F815CB82
:102BE8001B08150006083D08137808FF330101414A
:102BF80083469B0403368B0183350B01130D21009B
:102C08003E889308C4F8EA874A874E85EFF09F8785
:102C1800EA870327C4F863020C0863CD0B06AD806E
:102C2800858889C88346BB040527A38FD7FE23263A
:102C3800E4F8FD17033609010327C4F86351C702F6
:102C48001307F600419B3301E1408A841308C4F856
:102C58002687CA86D6854E85EFF01F9AA6878326D3
:102C6800C4F8033504F7833584F7233809003E8612
:102C7800EFF09FEB130104F7AA600A64E674467943
:102C8800A679067AE66A466BA66B066CE27C427DFC
:102C9800496182808346AB0441BF93F60420D9DAA8
:102CA800E38A0BF8930600046395DC008346EB0483
:102CB800A5BF9BD4E4408588269A83462A00092725
:102CC8002326E4F8A38FD7FE8346EB04F917238065
:102CD800D7008DB7011105616FF05FE85971A2F057
:102CE80056FC86F4A6ECCAE8CEE4D2E05AF85EF4C4
:102CF800801883AA86012338B4F8233CC4F813F853
:102D08001A0063190802EFF07FE52338A4F8230CB2
:102D1800B4F8033504F9833584F9130104F9A6706E
:102D28000674E6644669A669066AE27A427BA27B73
:102D380065618280BE841385060D36893A8BEFF073
:102D4800CFC8A5C4033A8502832905038334090142
:102D580063D39908B38434419387F400C19B33014A
:102D6800F1408A8B2686DA855E85EF60421793FAF2
:102D78000A0B23380900930700028124639CFA0296
:102D8800033504F9833584F9CE865286EFF0DFD90E
:102D98002330A4FA2334B4FA230CB4F8A6865E864A
:102DA800833584F9EFF05FD88DB7033A850383291B
:102DB800050469BF033504F9833584F9A6865E8660
:102DC800EFF09FD62330A4FA2334B4FA230CB4F8D6
:102DD800CE865286F1B7033504F923380900CE862A
:102DE80052867DBF757122E1A6FCCAF8CEF4D2F0F6
:102DF800D6ECDAE8DEE4E2E066FC6AF806E500090B
:102E0800B684AA891385060DBE8A2338B4F6233CF6
:102E1800C4F63A8BEFF06FBB03AC8401797193076A
:102E28000004937CAC04AA8B130AA5040A8D0149FB
:102E38006386FC0013898CFF333920014A87E286B8
:102E48005286D68513058D02EFF08FFD1307800299
:102E5800099FB307ED0003C70B022326A4F815CB7F
:102E68001B08150006083D08137808FF33010141C7
:102E780083C69B0403B68B0183B50B01130D210098
:102E88003E889308C4F8EA8726874E85EFF08FDFDF
:102E9800EA876315090213770C200DC363800A02C1
:102EA800930600040327C4F86399DC0683C6EB0481
:102EB80005272326E4F8A38FD7FEFD17906803277C
:102EC800C4F86351C7021307F600419B3301E14080
:102ED8000A891308C4F84A87A686DA854E85EFF072
:102EE800AFF1CA878326C4F8033504F7833584F71E
:102EF80023B804003E86EFF03FC3130104F7AA602D
:102F08000A64E6744679A679067AE66A466BA66B81
:102F1800066CE27C427D496182801B5CEC40137C3C
:102F28001C00629A83462A0009272326E4F8A38F07
:102F3800D7FE83C6EB04F9172380D70041B70111E8
:102F480005616FF03FEA397126F4844E71781308F1
:102F580058FB33F804011368882023AC060122F8D3
:102F680006FC368432E4EFF0FFE7E27004CC4274EA
:102F78002304B100A265A27421618280757122E1E7
:102F8800A6FCCAF8CEF4D2F0D6ECDAE8DEE4E2E049
:102F980066FC6AF806E500093689AA891385060DD4
:102FA800BE8B2338B4F6233CC4F6BA8AEFF0EFA1FF
:102FB8008324890179719307000493FCA4042A8B64
:102FC800130AA5040A8DDE85014C638AFC00A1471B
:102FD8006387FC00054C63447001B3057041628748
:102FE800A686528613058D02EFF06FEA130780025A
:102FF800099FB307ED0003470B022326A4F815CB5E
:103008001B08150006083D08137808FF3301014125
:1030180083469B0403368B0183350B01130D210076
:103028003E889308C4F8EA874A874E85EFF08FC533
:10303800EA870327C4F863020C0863CD0B06AD804A
:10304800858889C88346BB040527A38FD7FE232616
:10305800E4F8FD17033609010327C4F86351C702D2
:103068001307F600419B3301E1408A841308C4F832
:103078002687CA86D6854E85EFF00FD8A687832681
:10308800C4F8033504F7833584F7233809003E86EE
:10309800EFF09FA9130104F7AA600A64E674467961
:1030A800A679067AE66A466BA66B066CE27C427DD8
:1030B800496182808346AB0441BF93F60420D9DA84
:1030C800E38A0BF8930600046395DC008346EB045F
:1030D800A5BF9BD4E4408588269A83462A00092701
:1030E8002326E4F8A38FD7FE8346EB04F917238041
:1030F800D7008DB7011105616FF05FE8757122E1A6
:10310800A6FCCAF8CEF4D2F0D6ECDAE8DEE4E2E0C7
:1031180066FC6AF806E50009B684AA891385060DD7
:10312800BE8A2338B4F6233CC4F63A8BEFF0EF8915
:1031380003AC8401797193070004937CAC04AA8BD7
:10314800130AA5040A8D01496386FC0013898CFFC4
:10315800333920014A87E2865286D68513058D02C7
:10316800EFF0EFD213078002099FB307ED0003C702
:103178000B022326A4F815CB1B08150006083D08EA
:10318800137808FF3301014183C69B0403B68B0102
:1031980083B50B01130D21003E889308C4F8EA8714
:1031A80026874E85EFF00FAEEA876315090213777D
:1031B8000C200DC363800A02930600040327C4F899
:1031C8006399DC0683C6EB0405272326E4F8A38F5E
:1031D800D7FEFD1790680327C4F86351C702130789
:1031E800F600419B3301E1400A891308C4F84A8775
:1031F800A686DA854E85EFF02FC0CA878326C4F8E5
:10320800033504F7833584F723B804003E86EFF0CE
:10321800BF91130104F7AA600A64E6744679A67997
:10322800067AE66A466BA66B066CE27C427D4961CB
:1032380082801B5CEC40137C1C00629A83462A0047
:1032480009272326E4F8A38FD7FE83C6EB04F917D2
:103258002380D70041B7011105616FF03FEA717112
:1032680022F14AE94EE552E1D6FCDAF8DEF4A2ACE6
:10327800001906F526ED138B060D36892A8A5A851C
:103288002334C4F65304A5222330B4F6BA8A233C67
:10329800F4F4EFE09FF3833B8900033684F5AA89B1
:1032A80063D30B00994B930504F84A85EFD050314E
:1032B8008327890179711307401093F747108A848F
:1032C800638FE710EFD0C06AD30704E22338A4F86D
:1032D8005E87930604F81306D002A685130504F941
:1032E800EFE08FCF232EA4F69307C00263DEA70278
:1032F8001B0615009307F600C19B3301F140233CE0
:10330800C4F4EFD0E066D30704E2033684F58A8478
:103318002338A4F85E87930604F8A685130504F9F4
:10332800EFE08FCB232EA4F65A85EFE03FC80326A3
:10333800C4F7A6859307F600C19B3301F1408A873D
:10334800BE862696233CF4F4EFE06FC0032BC4F747
:103358001307E0022308E4F8130604F9DA85268542
:10336800EFE0CFD0833784F52A8769C983C68904FB
:10337800330795403E972300D70083C60902639818
:10338800060E033609010327C4F76351C702130762
:10339800F600419B3301E1408A841308C4F726876D
:1033A800CA86D6855285EFF02FA5A6878326C4F74F
:1033B800033504F6833584F6233809003E86EFF09A
:1033C800AFF6130104F5AA700A74EA644A69AA6997
:1033D8000A6AE67A467BA67B66244D618280EFD036
:1033E8002059530704E22338A4F8930604F8130677
:1033F800D002A685130504F9EFE00FBE232EA4F62C
:103408009307C002E3D2A7F21B0615009307F60044
:10341800C19B3301F140233CC4F4EFD060555307FE
:1034280004E2033684F58A842338A4F8930604F862
:10343800A685130504F9EFE02FBAEDB583C6090296
:10344800A9D2894663D5660303C614009306900380
:10345800E3E9C6F283C62400A5459B8606FD93F6DC
:10346800F60FE3E0D5F29306F002E3FCC6F09316FC
:103478001B00BD06C19A3301D14083C604008A8B64
:1034880081449B8656FD93F6D60F89EA83C60700CA
:103498007D3B232E64F72380DB00854483C6990493
:1034A80003B6890183B50901338897009308C4F7E7
:1034B800B3879B005285EFE0DFF68327C4F7A59F0B
:1034C800232EF4F6DE8775BD0111814705616FF083
:1034D8001FD9717122F14AE94EE552E1D6FCDAF8BA
:1034E800DEF4E2F0E6EC001906F526ED138C060D85
:1034F8003689AA8A62852334C4F62330B4F63A8B17
:10350800233CF4F4C28B468AEFE03FCC833C89002D
:10351800033684F5AA8963D30C00994C930504F803
:103528004A85EFD0F00983278901597113074010A4
:1035380093F747108A846380E712EFD060432338FB
:10354800A4F85E88D2886687930604F813063006C6
:10355800A685130504F9EFE02FA8232EA4F69307F8
:10356800200663DEA7021B0615009307F600C19B21
:103578003301F140233CC4F4EFD0803F033684F597
:103588008A842338A4F85E88D2886687930604F86C
:10359800A685130504F9EFE02FA4232EA4F662856F
:1035A800EFE0DFA00326C4F7A6859307F600C19BCA
:1035B8003301F1408A87BE862696233CF4F4EFE077
:1035C8000F99032AC4F71307E0022308E4F8130647
:1035D80004F9D2852685EFE06FA9833784F52A8719
:1035E80071C983C68904330795403E972300D700E5
:1035F80083C609026399060E033609010327C4F737
:103608006351C7021307F600419B3301E1408A84E6
:103618001308C4F72687CA86DA855685EFE0DFFDEA
:10362800A6878326C4F7033504F6833584F6233842
:1036380009003E86EFF04FCF130104F5AA700A7413
:10364800EA644A69AA690A6AE67A467BA67B067C26
:10365800E66C4D618280EFD0A0312338A4F8D28780
:103668005E87930604F813063006A685130504F949
:10367800EFE08F96232EA4F693072006E3D1A7F256
:103688001B0615009307F600C19B3301F140233C4C
:10369800C4F4EFD0E02D033684F58A842338A4F8E7
:1036A8005E87D287930604F8A685130504F9EFE030
:1036B800AF92E5B583C60902A1D2894663D5460310
:1036C80003C6140093069003E3E8C6F283C62400F9
:1036D800A5459B8606FD93F6F60FE3EFD5F0930616
:1036E800F002E3FBC6F093161A00BD06C19A330137
:1036F800D14083C604008A8B81449B8656FD93F68D
:10370800D60F89EA83C607007D3A232E44F7238023
:10371800DB00854483C6990403B6890183B5090192
:10372800338897009308C4F7B3879B005685EFE06A
:103738005FCF8327C4F7A59F232EF4F6DE876DBDE0
:103748000111C2883E8805619307C0046FF07FD8D5
:10375800717122F11384060D228506F526ED4AE9DA
:10376800BE8436894EE552E1BA89DAF82EE032E4B1
:10377800D6FCDEF4E2F0E6ECEAE8EEE4EFE01F83E4
:103788002A8A2285EFF04FB203BB0400034745069F
:103798002A8483460B0083378BFE6387E602784DC5
:1037A800833B8503833A05043ACCDA97DA8463F7D6
:1037B800F40283C6040003370A0336970347070059
:1037C800118B09CF8504E5B73851833B8504833ACB
:1037D80005053ACC3337F0003A9BC1BFB384644146
:1037E800A68C6385041C37EC060093078C88939598
:1037F800140008103EF0130C8C88EF2021483C4C34
:10380800338AF440635A400563C30700D2841C6CB2
:10381800A9CF827701479396140003B687FE8145A6
:103828000810EF20E12B0810EF20E124146C106839
:10383800834524020275B3079B005A87EFE09FB3C4
:103848002A8A0810EF20212382757D560810B305B7
:10385800BA40EFD01FF5268A3C4C6351F0048345EB
:1038680014020810EF20E16239A02686DA850810D4
:10387800EF20C132CDB763490A00304CB3054B0184
:103888000810EF20214A19A803465406B305404101
:103898000810EF2001526686DA85DDB702778327A4
:1038A80089018144033787FE93FC070B93F70720B0
:1038B800569791C30478BA9493951400281062F42B
:1038C800EF20C13BC147033A0901014C6394FC0056
:1038D80033BC440137ED0400014B914D130DCD72FB
:1038E8003C08DA9783C7070063EBFD048A07EA9769
:1038F8009C4382878327890193F70720A9C31078FF
:103908000C742810EF2001421DA8638A0A0283C59F
:103918000B002810EF20E1571DA00C102810EF20F5
:10392800413A31A863090C004E86B3059A40281025
:10393800EF20214829A0CE85E9BFE3170CFE050B2F
:10394800E310BBFB854763F957011386FAFF93859C
:103958001B002810EF20013DA27783B687FE63FE87
:10396800460193070002B306DA40639FFC004E86C7
:10397800B6852810EF20E143D28622760265A2653B
:103988008126EFF06F9A01A84E87014681452810DD
:10399800EF200115D5B72AF82AE028102EFC2304B9
:1039A800B100EF10D1790810EF107179AA700A747C
:1039B800233809000265A265EA644A69AA690A6AA5
:1039C800E67A467BA67B067CE66C466DA66D4D6165
:1039D80082802A842810EF1091760810EF10317633
:1039E8002285EF20E2452A84CDBF717122F113842C
:1039F800060D228506F526ED4AE9BE8436894EE590
:103A080052E1BA89DAF82EE032E4D6FCDEF4E2F0CC
:103A1800E6ECEAE8EEE4EFE06FD92A8A2285EFE0E7
:103A28005FE703BB0400034745062A8483460B006F
:103A380083378BFE6387E602784D833B8503833AA1
:103A480005043ACCDA97DA8463F7F40283C60400F3
:103A580003370A03369703470700118B09CF8504FC
:103A6800E5B73851833B8504833A05053ACC3337AB
:103A7800F0003A9BC1BFB3846441A68C6385041CE3
:103A880037EC060093078C889395140008103EF0D5
:103A9800130C8C88EF20811E3C4C338AF440635A07
:103AA800400563C30700D2841C6CA9CF8277014705
:103AB8009396140003B687FE81450810EF20410253
:103AC8000810EF10517B146C1068834524020275AE
:103AD800B3079B005A87EFE0FF892A8A0810EF1086
:103AE800917982757D560810B305BA40EFD07FCB27
:103AF800268A3C4C6351F004834514020810EF20D9
:103B0800413939A02686DA850810EF202109CDB77A
:103B180063490A00304CB3054B010810EF2081209F
:103B280019A803465406B30540410810EF20612840
:103B38006686DA85DDB702778327890181440337F2
:103B480087FE93FC070B93F70720569791C30478D9
:103B5800BA9493951400281062F4EF202112C147FB
:103B6800033A0901014C6394FC0033BC440137ED6E
:103B78000400014B914D130D0D743C08DA9783C76F
:103B8800070063EBFD048A07EA979C438287832733
:103B9800890193F70720A9C310780C742810EF2027
:103BA80061181DA8638A0A0283C50B002810EF203C
:103BB800412E1DA00C102810EF20A11031A8630978
:103BC8000C004E86B3059A402810EF20811E29A0CC
:103BD800CE85E9BFE3170CFE050BE310BBFB854759
:103BE80063F957011386FAFF93851B002810EF200D
:103BF8006113A27783B687FE63FE4601930700022E
:103C0800B306DA40639FFC004E86B6852810EF2085
:103C1800411AD28622760265A2658126EFE0DFF09E
:103C280001A84E87014681452810EF10716BD5B762
:103C38002AF82AE028102EFC2304B100EF10315096
:103C48000810EF10D14FAA700A74233809000265D2
:103C5800A265EA644A69AA690A6AE67A467BA67B8B
:103C6800067CE66C466DA66D4D6182802A8428101C
:103C7800EF10F14C0810EF10914C2285EF20421CF8
:103C88002A84CDBF757122E1CAF80009D2F0D6ECBA
:103C9800DAE8DEE4E2E006E5A6FCCEF466FC6AF8C3
:103CA8002338B4F62A8A9305070D130504F8233C34
:103CB800C4F6368C3A89BE8AC28B468BEFC0F04870
:103CC800130504F8EFE08FAE3971AA8C8A89EFC02A
:103CD800304A37ED04002338A4F85E88DA880147B3
:103CE80093068D7513060004CE85130504F9EFD0ED
:103CF800BFAE9307F003AA8463DAA7029B041500FA
:103D08009387F400C19B3301F1408A89EFC0504684
:103D18002338A4F85E88DA88014793068D752686CD
:103D2800CE85130504F9EFD03FABAA84930604F9B6
:103D38000146A685130584F8EF101138130584F899
:103D4800CE94EF105153833684F82686CE85668547
:103D5800EFD0FF9F833504F7033684F7930784F881
:103D68005687CA86528563050C00EFF07F9E19A01E
:103D7800EFF0BFC7233CB4F82338A4F8130584F840
:103D8800EF10F13B130504F8EFC0F04C033504F9CC
:103D9800833584F9130104F7AA600A64E674467946
:103DA800A679067AE66A466BA66B066CE27C427DCB
:103DB80049618280AA84130584F8EF1051381305ED
:103DC80004F8EFC050492685EF208207AA84C5BFB2
:103DD800B6880111BA863E87C287638508000561E7
:103DE8006FF01F9705616FF05FC05171CAE91389C1
:103DF800060D4A8586F52EE832EC3EE4A2F1A6EDE2
:103E08004284C684CEE5EFE06F9AAA894A85EFE03E
:103E18000FCD2A89930550024E85EFD01FA72304A2
:103E2800A10222678DECA30481022305010234104C
:103E38008C00130600084A85EFE020538800EF60E5
:103E4800F23EE2659B06050042659000EFE0DFCD9B
:103E5800AE700E74EE644E69AE696D618280A30423
:103E6800910223058102A3050102D1B739714AF0F5
:103E780052E806FC22F826F44EEC56E42A8A3289E7
:103E88006388C5042E849DCDB30AB9403686814522
:103E98005685EF10711793048501AA89A285268596
:103EA8004A86EF10910BD6854E85EF105114E270BB
:103EB800427423309A000279A274E269426AA26AC3
:103EC8002161828037E5040013050576EFC0CFA88D
:103ED800B7E4060093848488D9BF1D71A2E856F41C
:103EE8003684AA8A34080808A6E486ECBA84CAE0AC
:103EF8004EFC52F8EFF09FF734002686A28528087A
:103F0800EFF0DFF6C264626403BA84FE033984FE0C
:103F1800269A22992286A6855685EFC01017AA8967
:103F28000DE12685EF609230AA942285EF60123069
:103F38002A9463189A023309894033352001B3095A
:103F4800A0402808EF10B11F0808EF10511FE660C5
:103F58004664A6640669427AA27A4E85E2792561AA
:103F6800828063058900850405046DB78549D1BF42
:103F78002A840808EF10B11C2285EF10726C5D715D
:103F8800B7E70600A2E026FC4AF852F0B28436846D
:103F980086E44EF456EC938787882A892E8A1CE19A
:103FA8008A862286A6852800EFF05FECA269058C38
:103FB800060483BA89FE2285CE9AEFB0F030AA842F
:103FC8004E86A286A6855285EFC0100E2A866362A9
:103FD8008502130415002685EFA0D07C2285EFB05A
:103FE800B02E4E86AA85AA84A2865285EFC0D00B31
:103FF8002A86A6854A85EF10F15225A0EFB0A019B0
:104008002685EFA0307AEFB070222A84EFB0C01E68
:104018002800EF10D1124A85EF1071122285EF1097
:1040280032624E85EF6092204E956381AA02930911
:10403800150081454A85EF10D16559B7C1B7EFB072
:104048008015D1B72A84E9B72A84F1B72685EFA06D
:1040580070752800EF10B10EA6600664E274A279AC
:10406800027AE26A4A85427961618280011122E816
:104078002A841C6006EC26E4084581CF7D57AA8473
:104088006319E5003E85EF406054631495002330C2
:104098000400E2604264A26405618280011106ECBA
:1040A80022E826E4AE84EFF07FFC2A842685EFF030
:1040B800FFFB050505041334140013351500E260F1
:1040C800018D4264A2641335150005618280411197
:1040D80006E4EFF0BFFCA260134515001375F50F59
:1040E8004101828019712A65A2F8A6F41305050D0D
:1040F800CAF0CEECD2E8D6E4DAE05EFC62F84A6BAD
:1041080086FC2EE832EC36E03AE4BE89428AC68460
:10411800EFD0DFE9AA8A01440149A54B294C8A85D9
:104128000808EFF0DFFA05C58A676302F902080894
:10413800EFF0DFF39375F50F1306A0025685EFD065
:104148000FF81B0705FD9377F70F63F8FB02630071
:104158000904634E440363CC840223A08900E670FB
:1041680046744265E265A6740679E669466AA66AF7
:10417800066BE27B427C096182803B048C02399C9D
:10418800E3C784FC0808EFD0EFDA050949BF8327A5
:104198000B0093E747002320FB00D1B7317122F9C8
:1041A80056E580015AE106FD26F54AF14EED52E941
:1041B800DEFCE2F8E6F4EAF0EEEC08602338B4F648
:1041C8002334F4F41305050DC68A233CC4F62330C2
:1041D800D4F62334E4F6428BEFD05FDD93974A00A0
:1041E800233CA4F43301F140930504F6130504F7C6
:1041F800EFF0FFED6309052C130504F7EFF01FE757
:104208009375F50F033584F52338B4F40A8AEFD093
:104218006FE7833504F5AA8B033584F593993A0043
:10422800D299EFD0CFE52A8CDA8C01498144631FFB
:1042380059010149854D63E09D0685476395F4283A
:10424800130504F7EFD00FCF050919A483B70C00A5
:10425800033584F583C50700EFD0CFE26392AB0244
:1042680003B50C00139D34008504EF60227CB387EE
:10427800A90188E3529D23302D010509A10C45BFF2
:1042880083B70C00033584F583C50700EFD02FDF13
:10429800E315ACFEF1B783B70900138C89001397B7
:1042A80034002330F4F84E97E2878C63033604F821
:1042B800BE8663E4C500930604F883BB0600A10725
:1042C800233074F9E313F7FE0509130504F7EFD05B
:1042D8006FC663942B0B930504F6130504F7EFF0F0
:1042E8001FDFAA8B29C9130504F7EFF03FD8937590
:1042F800F50F033584F5814CEFD0CFD82A8D1305FF
:1043080004F7EFF0BFD69375F50F033584F5EFD0BA
:104318000FD72338A4F493963C00B307DA009C63C4
:10432800CE9694628E07DA979C636368D90C850CE5
:10433800E39394FF814B0147931637003386D900E6
:104348001C62B387274193B717006390770FFD145A
:1043580093973400B305FA008C61D296CE978CE21D
:104368009C631CE2E36A97FC638E0B0C03B709009D
:1043780085472330E4F863EC970A833704F8E37E33
:10438800F9EA930504F6130504F7EFF05FD4E306A2
:1043980005EA130504F7EFF07FCD9375F50F0335A4
:1043A80084F5014DEFD00FCE2338A4F4130504F79C
:1043B800EFF0DFCB9375F50F033584F5EFD02FCCF5
:1043C800AA8CE37A9DE6931B3D00330C7A01833770
:1043D8000C00033584F58E07DA979C63CA9783C56A
:1043E80007002330F4F4EFD0EFC9033704F583371F
:1043F80004F4631CA70E050DE9B7CA9783C5070027
:10440800033584F52330F4F4EFD0CFC7E305ADF2DC
:10441800833704F4033584F583C50700EFD02FC62E
:10442800833704F5E395A7F039B7050725BF0336A9
:104438000C00E2866364E600930604F89862850738
:10444800210C05BF89476382F4068547639DF406FE
:10445800033A0A0083B9090093173A003E9B833A4E
:104468000B00637E390D930504F6130504F7EFF08E
:104478001FC631C9338B2A0183450B00033584F5E8
:10448800EFD04FC0AA84130504F7EFF03FBE937531
:10449800F50F033584F5EFD0EFBE639EA406130530
:1044A80004F7EFD02FA905096DBF93F71A0081EF24
:1044B80083370A0093DA1A0003378A0063FC57012E
:1044C800D697E387E7F81C6418649C4393E7470092
:1044D8001CC3A5A8B3875741E397E7FE2330FA002A
:1044E80083B7890023B0F900A5B783C50700033552
:1044F80084F5EFD0CFB8E380ACF0FD149397340087
:10450800B306FA009462CE97CE9B2330DC009C63FE
:1045180023B0FB007DB583450B00033584F5EFD050
:104528000FB6AA84130504F7EFF05FB49375F50F7F
:10453800033584F5EFD0AFB4E383A4F669B7E31489
:1045480039F9833784F423A04701033504F7833509
:1045580084F7130104F4EA704A74AA740A79EA69C0
:104568004A6AAA6A0A6BE67B467CA67C067DE66DEB
:1045780029618280757122E1CAF80009D2F0D6EC6F
:10458800DAE8DEE4E2E006E5A6FCCEF466FC6AF8CA
:1045980008602330B4F8BE8B1305050D4689033C2B
:1045A80084002334C4F82338D4F6233CE4F6428B41
:1045B800EFD0DF9F93173900BD07C19B2A8A3301CB
:1045C800F140930504F7130504F88A8AEFF03FB029
:1045D80063000514130504F8EFF05FA9937CF50F49
:1045E800131D190081448149631C9D0863820912C7
:1045F800130504F8EFD00F9493973900BD07C19BBA
:104608003301F1400A8A814493972400D6979C434A
:104618008E07DA978863EF60624193973400D297E8
:1046280088E38504E39299FE8549930504F7130509
:1046380004F8EFF0DFA935E98547639FF40C833769
:104648000A006395370F83A70A00012963C427016D
:10465800BB87274123A0FB00033504F8833584F882
:10466800130104F7AA600A64E6744679A679067A03
:10467800E66A466BA66B066CE27C427D49618280E5
:1046880093973400DA979C6383C507006399950173
:1046980093972900D69784C385098504B1B75285B5
:1046A800EFD0EF9DE31B95FFE5B7130504F8EFF096
:1046B800FF9B1375F50F01478145636A9700E38DEA
:1046C800B4F6130504F8EFD0EF868509B9BF931740
:1046D8003700D297946363E5D90085050507F1BFD4
:1046E80013162700569614428E06DA969462CE96D2
:1046F80083C60600E384A6FEFD1493962400D6968E
:10470800944214C293963400D296946294E375B797
:1047180081448149014A11BF89476399F40083376D
:104728000A00E38237F383378A0021BF83270C000E
:1047380093E747002320FC0005B761714AEB138912
:10474800070D2AF04A8506F7AEE0B2E436F83AFCDF
:1047580022F326EF4EE7BE84C68952E3D6FEDAFA84
:10476800DEF6428BE2F2EEE65A7C7A74E6EEEAEA8C
:10477800EFD0FFB62A8A4A85EFD05F832A896285FF
:10478800EF60C22AAA8B82CC814A930D50020C1882
:104798008800EFF0DF93E6476300057A63FE7A79D5
:1047A8006381077C83270B0093E747002320FB00E6
:1047B8006F0000790C015285EFD00FE02C1952855B
:1047C800EFD08FE1C2766277866526660275BC08EF
:1047D8003EE426E0FC08B94813080108EFF01F9CE6
:1047E800E647AAF8AEFCAAE0AEC4C5E3F6471D4703
:1047F800BBE7E70223ACF9001C4093E7270069A058
:104808000C015285EFD04FDF8C115285EFD0AFE20B
:10481800C2766277866526660275BC083EE426E0A5
:10482800FC08E14813080108EFF05F97E647AAF88B
:10483800AEFCAAE0AEC4B1EBF6473147BBE7E702EE
:1048480023A8F9008357040093E787402310F40056
:104858002DA88C185285EFD0AFD4C67722E43EE05D
:10486800C2766277866526660275A687CE881308A3
:104878008105EFF09FECE6472AE12EE5AAE0AEC4F9
:1048880089E71C4093E707401CC0E68A850A01B700
:10489800BC08C27662778665266602753EE8894757
:1048A8003EE026E4FC08930830060148EFF09F83B9
:1048B800E6472AE12EE5AAE0AEC4E1FBF6475CC074
:1048C8008357040093E7074851B78800EFF00FFAC1
:1048D800833709031375F50FAA9783C70700A18BC0
:1048E80081C78800EFC01FE5BC08C276627786657D
:1048F800266602753EE889473EE026E4FC08FD4846
:104908000548EFF02FFEE6472AE12EE5AAE0AEC4FF
:10491800ADFFF64723A6F9008357040093E7074144
:1049280035B7930A010637E60400B7E50400D686D2
:1049380013069679938505794A85EFC05FE122E4ED
:1049480056E039BFBC08C27662778665266602756E
:104958003EE889473EE026E4FC08DD480148EFF0E0
:104968006FF8E6472AE12EE5AAE0AEC499FFF647BC
:1049780023A4F9001C40F99B01BFBC08C2766277EA
:104988008665266602753EE889473EE026E4FC080F
:10499800B1480548EFF00FF5E6472AE12EE5AAE011
:1049A800AEC4E39407EEF6473147BBE7E70223A41A
:1049B800F9001C4093E71700C1BDBC08C2766277B6
:1049C8008665266602753EE88D473EE026E4FC08CB
:1049D8009308E0160548EFF0EFF0E6472AE12EE5E8
:1049E800AAE0AEC4E39307EAF647FD3723AEF90021
:1049F8001C4093E7470049BDBC08C27662778665CC
:104A0800266602753EE889473EE026E4FC08B14880
:104A18000548EFF02FEDE6472AE12EE5AAE0AEC4FF
:104A2800E39507E6F647FD3723A8F9001C4093E70E
:104A3800870099BDBC08C2766277866526660275CE
:104A48003EE889473EE026E4FC089308B0030148A5
:104A5800EFF04FE9E6472AE12EE5AAE0AEC4E39677
:104A680007E2F64723A2F9000DB50C188800EFF00D
:104A78000FE6E30C05E08800EFF04FDF833709030A
:104A88001375F50FAA9783C70700A18BE38F07DE7D
:104A98008800EFC03FCAD1BF8C185285EFD00FB144
:104AA800C67783C70700E38207DEE67783C7070078
:104AB800E38D07DCC2766277866526660275BC08D8
:104AC8003EE426E0FC08894813080107EFF00FEDE3
:104AD800E6472AE12EE5AAE0AEC4E39807DAF647EE
:104AE800E38507DA1C4093E7071079BB22E4833794
:104AF8000A01BC6B3EE00DA0930A010637E60400EC
:104B0800B7E50400D6861306667A9385057A4A8542
:104B1800EFC0FFC322E456E0C27662778665266658
:104B28000275CE8813088105A687EFF01FC12AE118
:104B38002EE5AAE0AEC491BBBC08C2766277866552
:104B4800266602753EE889473EE026E4FC0893089D
:104B5800D0030148EFF00FD9E6472AE12EE5AAE095
:104B6800AEC4E39407D2F64723A0F90039BB930AF1
:104B7800010637E60400B7E50400D6861306167B5F
:104B88009385857A69B7BC08C2766277866526669A
:104B980002753EE889473EE026E4FC089308500386
:104BA8000148EFF02FD4E6472AE12EE5AAE0AEC48B
:104BB800E39D07CCF64737073F00B706C1FF9B9731
:104BC8000701F98F37073F001307070293E707022A
:104BD800F98F18409386F6FD758FD98F75B1BC088B
:104BE800C27662778665266602753EE885473EE0AE
:104BF80026E4FC0899480148EFF0CFCEE6472AE1C1
:104C08002EE5AAE0AEC4E39207C8F647E5B6BC08AD
:104C1800C27662778665266602753EE889473EE079
:104C280026E4FC08930850030148EFF0AFCBE647B1
:104C38002AE12EE5AAE0AEC4E39907C4F647370790
:104C48003F00B706C1FF9B970701F98F37073F0061
:104C58001307070493E70704F98F9386F6FB1840B8
:104C6800A5BF8C185285EFD02F92C67722E459B58C
:104C78008C185285EFD00F92CDBFBC08C2766277F0
:104C88008665266602753EE889473EE026E4FC080C
:104C9800930830060148EFF0EFC4E6472AE12EE515
:104CA800AAE0AEC4E39307BE834714000C1888003B
:104CB800E59B93E76700A300F400EFF04FC149C9F3
:104CC8008800EFF0AFBA9375F50F1306A0024A8576
:104CD800EFC0FFBE1B0705FD9377F70F3AD6254DAA
:104CE8006368FD068800EFC0FFA4F647A94A32575B
:104CF800BB87FA020C188800B99FBECEEFF02FBD13
:104D080005CD8800EFF08FB69375F50F1306A00256
:104D18004A85EFC0DFBA9B0705FD13F7F70F636DF0
:104D2800ED0088003ED6EFC0FFA07647B257BB8A99
:104D3800EA02BB8AFA00D6CEF6479B874789BECEE1
:104D48001C4093F7F7DF1CC0F64723AAF90035BECD
:104D5800F64713074004E349F7FE9B874706BECE94
:104D6800E5B7BC08C27662778665266602753EE8B6
:104D7800896891473EE026E4FC089388F87001486A
:104D8800EFF04FB6E6472AE12EE5AAE0AEC4E39E6F
:104D980007AEF6479B87478923AAF9008347140083
:104DA800E59B93E74700A300F400C5B48800EFF043
:104DB800EFAB833709031375F50FAA9783C707006D
:104DC800858B638F070CC2766277866526660275C7
:104DD800930A810537A8060056E426E0B948130867
:104DE800880B9C18EFF08FBB2AE12EE5AAE0AEC431
:104DF80088000C18EFF0AFADE30905A8E647465761
:104E0800D98FE39407A88800EFF04FA62A8D930561
:104E1800D0024A85EFC07FA7137DFD0F6313A50558
:104E2800C2766277266686650275094D9C1856E833
:104E380026E46AE0DD480148EFF0CFAAAEC42AE1D3
:104E48002EE5AAE0C27662772666AA85027556E83C
:104E580026E46AE09308B00301489C18EFF08FA895
:104E6800F9B18800EFF08FA02A8D9305B0024A852A
:104E7800EFC0BFA1137DFD0FE319A5A155B78800A9
:104E8800EFF0CF9EAA8A930550024A85EFC0FF9F94
:104E980093FAFA0F631655018800EFC0BF89F5B27F
:104EA800E64793E74700BECCCDB283C50C008337F5
:104EB8000903AE9783C70700A18B85CB0C18880020
:104EC800EFF0EFA0E304059C8800EFF02F9A8337FA
:104ED80009031375F50FAA9783C70700A18BE3870A
:104EE800079A8800EFC01F85D1BF4A85EFC09F99F8
:104EF8002A8D8800EFF08F979375F50F4A85EFC0DC
:104F08007F986307AD0283C50C004A85EFC03F97C1
:104F1800AA8C8800EFF08F959375F50F4A85EFC03E
:104F28001F966387AC00E64793E74700BECCB9BA43
:104F38008800EFC03F8099BAE3960786E3947A87A2
:104F4800BA701A740665A665FA645A69BA691A6A63
:104F5800F67A567BB67B167CF66C566DB66D5D613F
:104F68008280B30C5C0183C50C0001464A85EFC002
:104F78001F95E31CB5F3938C1A00B3079C0183C5F6
:104F8800070001464A85EFC09F939307500482CEDD
:104F98006306F5009307F004631CF500938C2A0060
:104FA800B3079C0183C5070001464A85EFC03F91BE
:104FB8001B05B5FD1375F50F93074005E3E2A7EE52
:104FC800B7E704009387477B0A053E951C41828713
:104FD80035711385070D22E9CEFCDAF006ED26E5DA
:104FE8004AE1D2F8D6F4DEECE2E8E6E4EAE02EE8BC
:104FF80032EC36E03AE4428BC689EFD00F9D2A8422
:105008008A850808A3030102EFF04F8931C183475D
:105018000402014A0149854437E7060013078788D7
:105028003AF463950710834B840863870B20130CAD
:105038002407814AFD5C6385042EA27783B787FE27
:10504800638E07109375FA0F2810EF0091649DA6E0
:10505800AA840808EFF08F818347F4061375F50FCB
:10506800A303A102034704026393A70635E7034796
:1050780084049305B002631FF706834704020149BD
:10508800014AFD5A0347710289C783469404E385A0
:10509800E6F883468404E381E6F883462407E39D23
:1050A800E6F663170900930500034E85EF00715E6D
:1050B8004265052AEFC02FE18A85080856CCEFF033
:1050C8000F812A8921ED834704020549A9B7834640
:1050D800E406E394A6FA09C703479404E30FA7F884
:1050E80003478404E30BA7F89305D0026394A70051
:1050F8009305B0024E85EF00D1594265EFC0AFDC91
:10510800FD578A8508083ECCEFE07FFCE30105F0F7
:105118000808EFE0BFF5A303A10285B70808EFE090
:10512800FFF483470402A303A102A9BF9305000269
:105138002810EF00B134C5BD834784046397B704D2
:1051480063950A0499E49305E0024E85EF007154D3
:10515800E1A0A27783B787FE639E0724C267281061
:105168003EF8E2673EFCEF00817DEA604A644275E2
:10517800E275AA640A69E679467AA67A067BE66B3E
:10518800466CA66C066D0D618280834704086386B1
:10519800B700834764086396B720639404206302CA
:1051A8000920930550064E85EF00B14E4265EFC0C9
:1051B8008FD18A85080862CCEFE07FF1AA8B630162
:1051C800051E0808EFE09FEA8347F4061375F50FFC
:1051D800A303A1026386A7028347E4069305D002CE
:1051E8006382A702DE845E89834571029B8705FD81
:1051F80093F7F70FE3E2FCF44E85EF00914919A805
:105208009305B0024E85EF00D148DE844265EFC0B9
:105218008FCB31A0854BDDBFCA8B854AC5BF8A8538
:10522800080862CCEFE0BFEA630D05160808EFE056
:10523800FFE3A303A10245BF814AE39004E0A54C24
:105248007D5C5DB74E85EF00C170C5BB83478404A4
:105258006395A703A27783B787FE63940A146392C2
:10526800041491C79375FA0F2810EF009142930523
:10527800E0024E85EF00F14121A213067102A94513
:105288006285EFC0AFDE05C1330585419B05050387
:1052980093F5F50F4E85EF00D13F052A5E894265EB
:1052A800EFC06FC2C5A0834704086386A701834780
:1052B80064086398A70FA27783B787FE6393040EE9
:1052C8006301090E81CB63970A009375FA0F2810C2
:1052D800EF00313C930550064E85EF00913B426547
:1052E800EFC06FBE8A85080866CCEFE05FDEAA844F
:1052F80045C90808EFE09FD78347F4061375F50FF3
:10530800A303A102034704026391A70421E703470B
:1053180084049305B002631DF704A6872689BE841A
:1053280083470402034D7102E38207F28347940422
:10533800E39EA7F163970A06ADE4E3050AF09375C7
:10534800FA0F2810EF00F1340DA88346E406E3961F
:10535800A6FC09C703479404E301A7FC0347840498
:10536800E30DA7FA9305D0026394A7009305B00252
:105378004E85EF00113226891DB7814A014A05B7CB
:10538800DE8A31BF8A85080866CCEFE05FD411C990
:105398000808EFE0BFCDA687A303A102CA84BDBF5A
:1053A800CA84A27783B787FEE38A07DA63940A0080
:1053B800E38A04C80C6C08683010EFB0D032E31FE1
:1053C80005D891472320FB0051BB2A842810EF0001
:1053D80001572285EF00D2265971CEE4BE89B7E77E
:1053E8000600CAE82EE82A89938787889305000271
:1053F8002810A2F0A6EC86F432EC36E03AE44284B7
:10540800C6843EF4EF00910782662267C265626631
:10541800930881022288CE874A85EFF07FBB2279E4
:105428002AF82EFC2AE82ECCEFB080542AF8A6855C
:105438004A8514182286EFA0106D8A850808EFE0C7
:10544800FFC509C51C4093E727001CC0C267281088
:105458003EF8E2673EFCEF00814EA6700674427586
:10546800E275E6644669A669656182802A84281027
:10547800EF00E14C2285EF00B21C5971CEE4BE89E1
:10548800B7E70600CAE82EE82A8993878788930534
:1054980000022810A2F0A6EC86F432EC36E03AE4DA
:1054A8004284C6843EF4EF00617D82662267C2654D
:1054B8006266930881022288CE874A85EFF05FB141
:1054C80022792AF82EFC2AE82ECCEFB0604A2AF876
:1054D800A6854A8514182286EFA0F06A8A850808EE
:1054E800EFE0DFBB09C51C4093E727001CC0C2677B
:1054F80028103EF8E2673EFCEF006144A67006748F
:105508004275E275E6644669A669656182802A8407
:105518002810EF00C1422285EF0092125971CEE4A3
:10552800BE89B7E70600CAE82EE82A8993878788E4
:10553800930500022810A2F0A6EC86F432EC36E0BF
:105548003AE44284C6843EF4EF00417382662267DF
:10555800C2656266930881022288CE874A85EFF089
:105568003FA722792AF82EFC2AE82ECCEFB040403B
:105578002AF8A6854A8514182286EFA0D0688A855D
:105588000808EFE0BFB109C51C4093E727001CC01D
:10559800C26728103EF8E2673EFCEF00413AA67069
:1055A80006744275E275E6644669A669656182809B
:1055B8002A842810EF00A1382285EF00720855715F
:1055C80026FD1385070DBE84A2E156EDE6FC86E5AF
:1055D8004AF94EF552F15AE95EE562E1EAF8EEF46D
:1055E8002EF832FC36F03AF4C28C46E4EFC0FFBD28
:1055F800844CA30301049307000493F4A4042A84AD
:10560800A14A6387F400A147C14A6383F400A94A09
:105618000C100818EFE09FA82A8B631605100818CD
:10562800EFE0DFA4834BE4061375F50FA303A10491
:10563800834704026386AB000347F4066310A70A96
:10564800B38BAB4093BB1B00ADC7834794046392F5
:10565800A7068347040281490149414A294C7D5DD7
:105668000347710489C7834794046381E70C834720
:105678008404638DE70A83472407639AE7066381F6
:10568800090663988A07C1C405294275EFC0AF832C
:105698000C1008186ADCEFE09FA3630005100818D7
:1056A800EFE0DF9CA303A104638B090E8347040288
:1056B80045BF83478404E38EA7F84275EFC0AF80E7
:1056C800FD570C1008183EDCEFE07FA0AA8969C1DD
:1056D8000818EFE0BF99A303A104A5BF814BA5BF9C
:1056E80095C8A147638BFA020529854979BF638864
:1056F800090A834704076386E70083471407639C06
:10570800E70891CC639F4A0981490149BDBF014916
:10571800A14AA5BF01498549E5BF0149F9B7014932
:105728008149C14A9DB7814B014981495947C147C0
:105738003AE06383FA0056E0B7E706009387878864
:10574800BEE483470402ADE37D5D135D1D005E9DED
:10575800B3575D03834D84083EE863830D0A9307BE
:1057680024073EEC63180B10014C8144034A0402E1
:1057780083477104630C0A08034794046318F70805
:10578800630F090E9375F90FA800EF008170C9A087
:10579800054B014961BF854951BF054B41BF014BCD
:1057A80071B756E0854949BF93050002A800EF008C
:1057B800E14C59BF054C89A00C1008186EDCEFE0CD
:1057C8001F912A8A45CD0818EFE05F8AA303A10438
:1057D800834571040265EFB05FF0630FB509C267D6
:1057E800E3EA97FCB3849A02B307AD400529B3B73F
:1057F800970033EC8701AA944275EFB0DFEC6DBFD8
:10580800014C63180B088144FD5DD9B70347840434
:105818006304F7068265626513067104EFC00F859D
:1058280021CDE2671D9DBD4763D3A7006935C267D7
:1058380063E29702B3849A02B307AD400529B3B770
:10584800970033EC8701AA944275EFB0DFE729A0EF
:105858000149DDBF6E8CCDBFFD570C1008183EDC2A
:10586800EFE0FF862A8A0DC90818EFE03F80A303FE
:10587800A104EDBD8144014C014A11A0054BA66766
:1058880083B787FE8DC79375F90FA800EF00616095
:1058980031A0014A8144E5B76E8BD5B70C6C086816
:1058A800B000EFB0406401E5914723A0FC00631805
:1058B800090063960900A66783B787FE81CF631B3B
:1058C8000A00631F0C0463840B00B3049040A267B2
:1058D80084E339A0A26723B00700914723A0FC0006
:1058E80063080B0083A70C0093E7270023A0FC00A4
:1058F800C277A800BEE8E277BEECEF004104AE60D4
:105908000E644665E665EA744A79AA790A7AEA6A0B
:105918004A6BAA6B0A6CE67C467DA67D696182802B
:10592800FD5763860B00FE1722671CE37DB785834E
:10593800E5BF2A84A800EF0081002285EF004250CD
:10594800797145616FF0BFC7357126E5C68483A8B4
:1059580087014AE106ED22E9CEFCD2F8D6F4DAF066
:10596800DEECE2E8E6E42EE832EC36E03AE493F8DE
:105978001800428963930806FD5846F4930881028B
:10598800EFF0FFC3A2772AF82EFC2AE82ECC0547B1
:105998006364F702858B2380F400EA604A644265F9
:1059A800E265AA640A69E679467AA67A067BE66B16
:1059B800466CA66C0D6182802380E4009147232009
:1059C800F9008A850808EFE06FED61D9832709009F
:1059D80093E727002320F900C9B71385070DEFC007
:1059E800CFFE2061033B05032A8A13341400133BBE
:1059F8001B008549054C854C938AF9FF15C463053E
:105A08000B02814B63840C1483370A046390571587
:105A180063840A1423800400630B0C0C83370A0385
:105A28006397570D91477DB78A850808EFE00FE720
:105A3800AA8B69F90808EFE06FE31375F50F19CC25
:105A480063850C0263060B08630B0C080808EFB0AB
:105A58007FCE03340A0433B48900ADA083378A03A8
:105A6800D69703C707006300A70263070B08630CF8
:105A78000C0883370A036398FA08638F0A0C854772
:105A88002380F400ADA063010B02E3110CFC0808AD
:105A9800EFB05FCA03340A04DA8733B489001344C9
:105AA80014001374F40F79A883378A02D69783C732
:105AB8000700639BE7060808EFB0DFC703340A0452
:105AC80033B48900134414001374F40F054B99A0E0
:105AD80083378A02D69783C70700E38EA7FC8337EC
:105AE8000A04639BFA0663800A02238004009B9BD6
:105AF8001B002320790155B583378A02D69783C7BF
:105B080007006385A7002380040029BF0808EFB0B9
:105B18007FC2054483370A03054CB3B7F90093C71E
:105B2800170093F7F70F39A80808EFB0BFC0033480
:105B38000A04014C854733B48900134414001374D4
:105B4800F40F054BDA8C85093E8B7DB563060C0096
:105B580083370A03E38357F3238004009947E39BC1
:105B68000BE6C9B55571A2E11385070D3E8426FDE4
:105B780056EDE6FC86E54AF94EF552F15AE95EE53E
:105B880062E1EAF8EEF42EF832FC36F03AF4C28C10
:105B980046E4EFC08FE3004CA3030104930700041D
:105BA8001374A404AA84A14A6307F400A147C14A54
:105BB8006303F400A94A0C100818EFE02FCE2A8BD3
